:400000000040002011000000810200008102000010B501F057F900F095FA00F039F9C04610B51222134B1A60302001F0C3F8BC229201114B1A60114B114A1A60CC218901E0
:40004000104A1160104A1A600024104B1C6040220F4B1A6001320F4B1A600F490D2000F0E5FF0D2000F0C2FF0C4B1C60002001F031F910BD30001040000301400000014092
:4000800040FF00800403014041FF0080280003401801014000010140691300000C02224010B572B6EE2212020E4B1A6099220E4B1A60933A0D4B1A60D82212010C4B1A6097
:4000C00002230C4A136031210B4A11600B4A1360C022D2010A4B1A60FFF7A2FF00F0C4F810BDC0460003024000040240080104400803044000040440080404401804044079
:400100000806044010B5064C2378002B07D1054B002B02D0044800E000BF0123237010BD400100200000000048180000084B10B5002B03D00749084800E000BF074803682C
:40014000002B00D110BD064B002BFBD09847F9E7000000004401002048180000B8000020000000007047C0467047C04610B500F013F800F07BFC012000F0A0FD012000F0B3
:40018000B1FD62B6FEE7C046024A1368013313607047C046B001002010B500F079FD024800F01AFD10BDC0465102000010B5124A136801331360272B1CD900220E4B1A6071
:4001C00000F088FD030058425841C0B200F076FD0A4A136801331360092B0BD90022074B1A60074A1368013313603B2B02D90022034B1A6010BDC0465C010020AC01002048
:40020000B40100200E4A51790E4B1B785371994203D001220A4B1A7102E00022084B1A71074A9179084B1B789371994203D00122064B1A7002E00022044B1A707047C046F9
:400240005C010020AC010020B4010020A801002010B5012000F02CFDFFF7A8FFFFF794FFFFF7D0FF10BDC0460322034B1A601D32024B1A607047C04630003040000E3F40EC
:4002800010B501F09FFA03680C2B00D1FEE7FEE770B50F4E0F4D13E029686B68AC68002202E001C901C30432A242FAD1E868002202E0002102C304328242FAD11035013E6F
:4002C000002EE9D101F084FAFFF750FFFEE7C04601000000DC18000010B500230AE0032B03D89A000B49505800E00B4899000B4A885001332B2BF2D9FFF7D2FE084B1B6827
:40030000002B02D10022064B1A6080229205054B1A6010BD000000008102000000000020B000002008ED00E0002306E04218013A12789B189BB2013989B20029F6D1584293
:4003400080B270470047C04610B58022024B1A6000F0A4FE10BDC046B0000020F0B583B00D006B469E1DDA8001230B7048701400AA70130ACB70171DB9B22800FFF7D4FFCC
:40038000E855631D000AE854A31D1722EA540734A1B296233200280000F0E6FB03B0F0BD70B505000E001400002802D0002000F03BFE002005E0013CAB19E3181B781818DE
:4003C000C0B2002CF7D170BD70B5C0B0050AFF2304009C43002304E01A5D6E46F25401339BB2FF2BF8D9FF2318406B461B5C8B4206D06B4619542804000C694600F00CFD8A
:4004000040B070BD10B50C2863D88000404B1B589F460B06591A0B023E4A9446634401225CE00B06591A0B023B4A94466344042254E00B06591A0B02384A94466344022266
:400440004CE00B06591A0B02354A94466344042244E00B06591A0B02324A9446634401223CE00B06591A0B022F4A94466344012234E00B06591A0B022C4A9446634402223A
:400480002CE00B06591A0B02294A94466344022224E00B06591A0B02264A9446634402221CE00B06591A0B02234A94466344042214E00B06591A0B02204A944663440122A9
:4004C0000CE00B06591A0B021D4A94466344042204E0002000F0A8FD02220023012A02D11878C0B200E00020022A03D11978587800020843042A09D11A7858780002104324
:400500009A7812041043DB781B06184310BDC0464C180000C0FF0100C1FF0100C5FF0100C9FF0100D0FF0100D1FF0100D6FF0100D2FF0100D4FF0100D8FF0100DCFF01005A
:40054000E0FF010010B50D4B1B68DB0602D400220B4B1A600A4B1B68802B0ED10022084B1A6000210220FFF74DFF002805D000210220FFF747FFFFF7E5FE10BD54000340C3
:40058000B000002070B5050001000320FFF73AFF441C240229000420FFF734FF241829000620FFF72FFF012828D029000320FFF729FF421C12020023002608E01078411E2E
:4005C000C9B2FD2900D801261B18DBB20132A242F4D35B42DCB229000120FFF713FF84420ED1002E0ED02B065D1B2802064B9C4660440121FFF7E8FE002004E0002002E0E1
:40060000062000E0062070BDD1FF0100F0B55F4656464D464446F0B4C24CA544050000F05DFA62B600239A46984600930A240027002D01D1FF2300E02B00BB4A02A98C4617
:4006400062449621490090A800F050FA002D01D0013CE4B2002C01D00028E9D1002800D0F2E1B14B02AA944663441B88062B24D990AA1278012A22D190A9CA78120289787B
:400680000A431700110007329A421AD896235B009A4218D87A1D90AB9E5C3202381D1E5C164306315B5C172B0FD181B290A8FFF73BFE86420BD100260AE0042608E004261C
:4006C00006E0032604E0032602E0042600E00826002E00D066E190AB1A7993465A781300313BD9B20A2900D92CE18B008F49CB589F464346012B00D056E1002F00D056E186
:400700000020FFF73FFF4342434190AA1371012293E14346012B00D04CE1012F00D04CE15B46002B00D04BE1814B1B681B685A0CD2B2934503D11B0ADB05DB0D05E093454E
:4007400001D9002301E080239B0090AA13711B0A5371FF239371FE3BD37104226DE1342A0ED14346012B00D02DE1032F00D02DE1CC32002145A801F05AF880235B009A4692
:400780004346012B00D024E1022F00D824E145A85044FA1E674902AB9C46614401F03EF83B0053449BB20422FF32934200D016E190AA93791B02527913439A465E4B9A45FF
:4007C00000D90A26002E00D010E15B465F02BFB25744BFB2564B1B681A68130A9BB2FF21114201D001339BB2BB4200D902E1009B002B0BD180225200002105A801F017F890
:4008000005A94D4800F008FB0123009345A9380000F002FB002800D1F3E000239A4680277F000A26002208E14346012B00D109E10426002201E14346012B00D0E7E0534605
:40084000FB1896225200934200D9E3E045A850443A0091A900F0E2FF5346FB189BB29A460022EAE0002F00D0D7E005AA334B03CB03C291AA05AB03CB03C200239A46013334
:4008800098460822D9E04346012B00D0C8E0032F00D0C8E090AA93791B025279134399465B46590249440902234B994500D90A26002E00D0BAE0802252000020FFF770FD45
:4008C000030001905A46520292B24A4492B25946002913D118498A4210D100210520FFF791FDC0B2019B1B1ADBB2994600210620FFF788FDC3B24A46D31ADBB25B4290AA0F
:400900001371012299E00020FFF73CFE002802D180220B4B1A6000F0E5F800F0BFFB042600228AE08CFCFFFF6603000080180000BC0000203F020000FF010000AC18000045
:40094000B0000020484B1E68002E71D04346012B71D102AB1A71DF8091AB04930C22002105A800F064FF05AB9B4691AA0792190003A8B0475B469A882623FF339A4203D959
:4009800091AB0799994207D0079B002B01D1002A05D1059BDEB250E00E2600224DE00E2600224AE0002248E00426002245E00426002242E0042600223FE0042600223CE0AB
:4009C0000426002239E00426002236E00426002233E00426002230E0042600222DE000239A4680277F000326002226E080277F00002222E000239A4680277F000A260022DD
:400A00001BE000239A4680277F00002215E00426002212E0032600220FE0042600220CE00426002209E00426002206E0002204E00526002201E00526002290A93000FFF784
:400A40008DFC01E000239A46002D00D1F0E54346012B00D1ECE5DD239B009D443CBC90469946A246AB46F0BD6401002070B50020FFF788FD002801D0062400E00024154D62
:400A80002B681A68C03AC0210020FFF789FC6B681B78C01AC0B24042C0B2834204D10D4B1B681B68002B02D1002000F0BDFA0A4B1B68402B01D0002C05D00022064B1A6046
:400AC0000020FFF7A3FD0A20FFF7A0FDFFF73CFC70BDC046BC000020B000002010B500F0C7FC10BD10B500F0D3FC10BDF0B583B007000E00019200282DD000292ED09A007A
:400B0000D3185C0000F0F4FC002811D000F0F0FC0500AE2000F0BAFB00F0EAFC8542F5D1B54200D93500019B1D800023019308E0012000F0BFFA013C002CE3D100251023B2
:400B40000193002404E03E1900F0B8FC30700134A542F8D804E00123019301E001230193019803B0F0BDC04670B50C001500002806D0002906D000F007FD2C80002002E039
:400B8000012000E0012070BD8423014AD05070470000002010B5040000F043FC044A1168044B0B40A4031C43146000F03EFC10BD10E400E0FF3FFFFF80229202014B1A6027
:400BC0007047C04600E100E080229202014B1A607047C04680E100E010B50400FFF7F4FF2000FFF7D1FF0320FFF7D4FFFFF7E4FF10BDC0460004000C014B18607047C046BC
:400C0000080120400004000C014B18607047C0461401204070B504000D0000F002FCAC40024B1C6000F001FC70BDC0460800204010B500F0F6FB064A116801230B43136090
:400C400000F0F3FB18210120FFF7E4FF10BDC04600002040014B18607047C0463801204010B580229204074B1A600C22064B1A600120FFF7EFFF0548FFF7C4FF0020FFF733
:400C8000B9FF10BD0001204024012040E703000010B5064B1B78002B04D1FFF7E1FF0122024B1A70FFF7C4FF10BDC04668010020014B18607047C04630012040044A136876
:400CC000DBB201218B430840184310607047C04600010440024B1B68012018407047C0460401044004490A68D2B210239A43000118401043086070470006044082B0134B1B
:400D00000093134B0193134B6A461A601249134A1160C0461B681B0F1B07F0221206934204D10C4B1B68FF2018400DE0094B1B681B0F1B07A0221206934204D0054B1B681D
:400D4000FF20184000E0002002B07047B6E900006C010020080010401600008004001040104B114A1A601149114A1160C0461B681B0F1B07F0221206934204D1094B1B684F
:400D8000FF2018400DE0074B1B681B0F1B07A0221206934204D0034B1B68FF20184000E00020704708001040B6E80000150000800400104082B0134B0093134B0193134BDA
:400DC0006A461A601249134A1160C0461B681B0F1B07F0221206934204D10C4B1B68FF2018400DE0094B1B681B0F1B07A0221206934204D0054B1B68FF20184000E00020C9
:400E000002B07047B6EA00006C01002008001040170000800400104030B5C5B004000023439342933D4B984273D8002971D08022520002A800F0F2FC394B0093FF2301934D
:400E4000384B6A461A603849384A1160C0461B681B0F1B07F0221206934204D1314B1B68FF2213400DE02F4B1B681B0F1B07A0221206934204D02B4B1B68FF22134000E02F
:400E800000234393439B002B45D100F0CAFA0500FFF734FF4290429B002B02D1FFF760FF4390439B002B25D1214A0092009A2404144300941B4A694611601E481B49086003
:400EC000C0461268120F1207F02109068A4204D1144B1B68FF2213400BE0124A1268120F1207A02109068A4203D00E4B1B68FF2213404393429B002B07D1FFF75BFF42908F
:400F0000429B002B01D0429B4393280000F08DFA01E004234393439845B030BDFF010000B6D70000080010400400008004001040B6D800000500008070B5040000F071FA97
:400F40000500102C05D8104A136803218B43136016E0202C07D80C490B6803229343023A13430B600CE0302C07D807490B6803229343013A13430B6002E0002000F054F819
:400F8000280000F052FA70BD300010400C4B1B689B001C22134018330A4A1268920803210A40D34008490868084A02400A60084A944663441B78DBB2064A13607047C046B4
:400FC000080F03402800034000002240FFFFFFBF4DF3FF0F0C0F0340034B18688023DB05184000D001207047000022401F2318401E3B8340014A13607047C04600E100E0BD
:401000001F2318401E3B8340014A13607047C04680E100E01F2318401E3B8340014A13607047C04680E200E001BE704770B504000D001B2802D90020FFF7F6FF1034A4000E
:4010400080239B059C4664442068256070BDC04670B504000E00032902D90020FFF7E4FF1B2C02D90020FFF7DFFF03252540ED00063500F0D6F9A408A400074B9C46644476
:4010800021680323AB4099430B003100A9401943216000F0CAF970BD00E400E0034A13681B041B0C02490B43136070470CED00E00400FA0510B5040006E0084B586800F0B5
:4010C000A7F9074B9C46644480231B029C42F4D8024B9868604300F09BF910BDC40000200080FFFF70B582B000F0E2F800284DD000F097F90500264B1A6892001C231A405E
:401100001832244B1B689B0803210B40DA400021214B1960214C2168214B0B4021494A438021C9018C466244D20B013A5205520D1343A0225203134323601B4B1B68019329
:401140003020FFF7F9FE194A13688021C9050B4313602668164B1E40002407E00120FFF7A9FF1034A30533430C4A1360EE2CF5D90120FFF79FFFFF239B051E43074B1E6052
:40118000019A094B1A60280000F04FF902B070BD080F0340280003400C0F03400800224000F800C040420F003000104000002240FFFF3FC0F0B583B0040018280BD01C2897
:4011C00009D0202807D0242805D0282803D02C2801D0302849D100F024F90190FFF7FCFE002803D0FFF7D2FE012600E00026214A136807218B4313601F4BE3181B78DBB2CC
:401200001E4A13601E4A13688B4313601D4803687F22934319001C4BE3181B7813400B430360322000F0F4F8182C16D9114F3B680725AB431A0023001C3B9B082B401343E0
:401240003B60322000F0E4F83A68AA432300183B9B082C001C4014433C60012E01D1FFF741FF019800F0E1F802E00020FFF7DCFE03B0F0BD080F03404DF3FF0F0C0F0340C1
:40128000100F0340180F034034F3FF0F10B5034B1B7B584300F0BCF810BDC046C4000020024B1868800F80077047C0460C022240034B1B68002B01DA012000E000207047CF
:4012C00000002240014A024B1A6070476588EDAC3800034010B50400FFF7E2FFA0421AD0144A136803218B431360134B1B689B0F01D17C2001E086204000FFF7C7FF00F0AC
:4013000090F80D4A13689B009B08A40FA4071C43146000F08AF8074B1B6803229343064A1268920F01D1023200E001221343014A136010BD140222400C02224010B504009C
:4013400000F06FF8054B1C4005490B68054A134023430B600B6800F068F810BD0404040010022240FBFBFBFF10B5244B1B685B0715D5234B1B685B070ED5224B59690420AA
:4013800001401F4C22688A4322605A6982435A619B68002B00D098470420FFF7CFFF174B1B685B0518D5164B1B685B0510D5154B59698022D2001140114802688A4302606C
:4013C0005969114A0A405A61DB68002B00D098478020C000FFF7B2FF084B1B685B030CD5074B1B685B0304D5064B1B69002B00D098478020C002FFF7A1FF10BD100222409E
:40140000D800002084010020FFFBFFFF000000000230800803D001300238FCD1C046C0467047EFF3108072B6704780F31088704710B50720FFF7DAFD10BDC04610B500F03B
:4014400025F910BD10B500F033F910BD10B500F0A7F810BD10B5054A1368802109060B431360FFF7E5FFFFF7E9FF10BD0000244010B5064B1B78002B04D1FFF7E7FF012221
:40148000024B1A70FFF7E6FF10BDC0469C01002010B50720FFF7B4FDFFF7D4FF054A13685B005B0813600022034B1A600720FFF7B1FD10BD00002440880F2440094B1A68DC
:4014C000094B1B689A420BD0074B1B680133412B00D10023054AD05CC0B2034A136000E000207047C0010020BC0100200C020020074B1B68074A1268934203D3054A106893
:40150000181A04E0034A10681B1A413318007047C0010020BC010020144B1A68144B1B689A4208D1134B1B681F221340082B02D0114B186019E00D4B1A680132402A00D193
:4015400000220B4B1B689A42FBD002230B490B60C0B20B49885405490A600A4A1268134203D1084A11680B4313607047C4010020B80100200802244040022440800F24408C
:40158000C8010020880F244070B506000D00002403E0305DFFF7C0FF0134AC42F9D370BD70B5204A204B1A600024204B1C60204A204B1A60204B214A13600721204A116090
:4015C000204A14600639204A1160204A1360204B1C6004251F4B1D600720FFF711FD03210720FFF735FD1C490720FFF71FFD1B4B1C601B4B1C601B4B1C601B4B1C601B4BF5
:401600001D601B4B1C601A681A4B1A801A4B1C601A4B1C601A4B1C701A4B1C601A4B1C6070BDC04607000002000024404000244001000A004800244007000080000324406C
:40164000040324401003244044002440000224400402244050002440D9160000880E2440C80E2440480F2440080F2440C80F2440880F2440A4010020C0010020BC0100204A
:4016800008020020C4010020B801002005490B68F0229343603A13430B60034B1A88034B1A60704700040240A4010020880F2440064A1368F0218B431360054B1A68E423D3
:4016C000DB001340034A13807047C04600040240880F2440A401002010B5FEF743FD284B1B68002B00D09847264B1B685B071DD5254B1B680133412B00D10023234A126899
:40170000934205D1224B1B682022224B1A7006E01F4A1268D2B22049CA541B4A13601F4B1B68DB06E4D104221D4B1A601D4B1B689B0721D51C4B1A681C4B1B689A4213D089
:401740001A4B1B680133402B00D10023184AD25CD2B218490A60154A1360174B1B681F221340082BE6D104E0144A136802218B4313600222124B1A60FEF7F6FC10BDC04604
:40178000A0010020CC0F2440C0010020BC01002040032440080200200C02002008032440C00F24408C0F2440C4010020B8010020C80100204002244008022440880F244015
:4017C000800F2440014B18687047C0463C0100200E4B70B500251E000D4CE41AA410A54204D0AB00F35898470135F8E700F064F8084B00251E00084CE41AA410A54204D0FC
:40180000AB00F35898470135F8E770BDC4180000C4180000C4180000CC180000002310B59A4203D0CC5CC4540133F9E710BD03008218934202D019700133FAE770470000C8
:40184000001A0000FF00000000000000D2040000120400002204000032040000420400005204000062040000820400007204000092040000A2040000B2040000C204000051
:40188000F206000012070000440900005E070000280800004409000036080000640800005E0700008608000006090000B5116A25003C010143000000F8B5C046F8BC08BC3B
:4018C0009E4670472D010000D9020000F8B5C046F8BC08BC9E46704705010000F0180000B8000020880000001001000000000000000000004018000044180000010000004A
:401900000000C05D80BB000030000000006CDC02040404000000000000000000000000000000000000000000000000000000000000000000B41800000000000000000000FD
:4019400000000000000000000000000000000000000000000000000000000000000000000000000000000000000000000000000000000000DC00002000000000000000006B
:401980000000000000000000000000000000000000000000000000000000000000000000000000000000000000000000000000000000000000000000000000000000000027
:4019C00000000000000000000000000000000000000000000000000000000000000000000000000000000000000000000000000000000000000000000000000000000000E7
:401A000000400020111A00008D7000008D70000010B5034B83F3088806F008FC05F056FB0040002010B51222204B1A60302006F06FFBBC2292011E4B1A601E4B1E4919603D
:401A40001E490A601E4A1A60802149001D4A11601D4A1A609C2189021C4A11601C4A1A60F92109021B4A11601B4A1A6020221B4B1A6021321A4B1A6001321A4B1A60023A95
:401A8000194B1A600432194B1A60013A184B1A6018490D2006F078FA0D2006F05FFA0022154B1A60002006F0D5FB10BD30001040040301400000014041FF008008030140E6
:401AC00042FF00800003014040FF00801003014044FF00800C03014043FF00802800034048010140180101400C0101400401014000010140E98200000C02224010B572B60C
:401B00001C4A1D4B1A6099221C4B1A601C4A1D4B1A601D4A1D4B1A6070221D4B1A601D4A1D4B1A603F231D4A13601D4A13603D3B1C4A13601C491D4A11601D4A13601D4A8E
:401B40001360B221FF311C4A11601C4A136003331B4A13601B491C4A11601C4A136003221B4B1A6033321B4B1A60FFF75BFF05F073FA10BD99EE0000000302400004024042
:401B80000F0F0000000602404B6C0000080004400001044006601B0008010440000204401802044000030440B10D000008030440180304400004044008040440180404405A
:401BC00000060440866100000806044018060440000704400807044010B5064C2378002B07D1054B002B02D0044800E000BF0123237010BD5801002000000000E4D00000C4
:401C0000084B10B5002B03D00749084800E000BF07480368002B00D110BD064B002BFBD09847F9E7000000005C010020E4D00000B80000200000000010B5C82006F0E8F939
:401C400000F034FB00F030F804F0BCF801F004F800F094F800F06AFA04F0CEFC00F006FB03F062FD00F05EFA62B600F05DFA00F05FF800F089F801F087F900F027FD03F0F0
:401C80002FFE04F07DFA00F0F3FAEEE7014B18687047C04650020020024A1368013313607047C0465002002010B505F0FBFB024805F09CFB10BDC046011D00000D4A1368F9
:401CC00001331360632B14D900220A4B1A600A4A136801331360092B0BD90022064B1A60064A1368013313603B2B02D90022034B1A607047740100204C0200205402002089
:401D000010B5012005F0DEFB01F0F2F8FFF7D6FFFFF7C2FF00F0F6FB00F0B8FB00F066FB10BDC046014B18787047C046480200200E4A51790E4B1B785371994203D0012244
:401D40000A4B1A7102E00022084B1A71074A9179084B1B789371994203D00122064B1A7002E00022044B1A707047C046740100204C020020540200204802002010B505F079
:401D8000AFFD05F0BDFD10BDF8B5012005F0C2FD00280CD1AFE1200005F0D0FDD64BA200D1588C466044D0500134E4B200E00024052CF0D9D14A136801331360C72B00DDAB
:401DC00086E098E13500B300CB4A9858C82108F091F801B2300005F0C7FD042800DC00206B00C74A9852C749EB005A5CCB1859780902114309040C14001BC34A50439A78C5
:401E0000D9780902114309040B14191B08F072F8002800DA002000B26B00BC4A9852052801DC00219952B94C6F003B5FFA2080005843EA00B34B9B1819795A7912020A4347
:401E4000997909040A43D9790906114308F052F800B23853AC4B984201DDAB493953AB000021A54A99506A00A849505EA84A9F5CD3185A7812023A4311009C78240422003C
:401E80000A43DC782406144308F036FE211C08F077FBA04908F0AAF9071C011C201C08F065F9002800D13C1C0021201C08F05EF9002800D00024984AAB00D454210AD318F3
:401EC0005970220C9A70240EDC700136F6B200E00026052E00D875E7904B9B88002B0ED18E4AD288002A0AD18B4B00213022995401329954013299540132995470E0002BC7
:401F000035D0854C217A637A1B020B431A00A07A000403001343E07A00061843804D2E796B791B0233431A00A97909040B001343E9790906194308F023FB2E786B781B027E
:401F400033431A00A97809040B001343E9780906194308F04BF93023E054020A0133E254020C0133E254000E0133E05438E06B4BDB88002B34D0684C217B637B1B020B4356
:401F80001A00A07B000403001343E07B00061843634D2E796B791B0233431A00A97909040B001343E9790906194308F0E9FA2E786B781B0233431A00A97809040B001343EE
:401FC000E9780906194308F011F93023E054020A0133E254020C0133E254000E0133E0544E4B1B89002B0AD14B4B00213422995401329954013299540132995434E0464CE5
:40200000217C637C1B020B431A00A07C000403001343E07C00061843414D2E7A6B7A1B0233431A00A97A09040B001343E97A0906194308F0A5FA2E786B781B0233431A0075
:40204000A97809040B001343E9780906194308F0CDF83423E054020A0133E254020C0133E254000E0133E0542C4B5B89002B0AD1294B0021382299540132995401329954DC
:402080000132995434E0244C217D637D1B020B431A00A07D000403001343E07D000618431F4D2E7B6B7B1B0233431A00A97B09040B001343E97B0906194308F061FA2E783F
:4020C0006B781B0233431A00A97809040B001343E9780906194308F089F83823E054020A0133E254020C0133E254000E0133E0540022024B1A60F8BD700200207C010020BC
:4021000058020020E009002088130000640200209C0A002000409C45600A002088020020BC0A00207047C0467047C04610B505F0C3FC10BD30B583B0134B984200D91800F9
:4021400001ABCC0159787F2529402143C9B24024A14320242143541EA2411401CAB210218A4322435A700005000D1C88240B24030443200A05F0B0FCE0B205F0ADFC322086
:4021800006F032F803B030BDFF0F000010B502280DD8002802D105F027FC08E0012803D1002005F069FC02E0002005F0C1FA10BD10B5012005F018FC012005F05DFC01200D
:4021C00005F0B6FA10BDC046F0B583B005000C001600019347007F18FB00214AD218117953791B0219439079000403000B43D079000618437043FA21890007F07BFE86B2D0
:40220000184B9E4200D91E00052F27D87A00164BD6522800FFF7BAFF114AFF00BB5CD7197D782D021D432D042D14BB78F8780002184300040014401B70430A4907F05AFE38
:40224000281800D500200003064907F053FE80B2019A2100FFF76EFFFFF7AAFF03B0F0BDE009002088130000880200207047C04610B500F06DFE00280AD1FFF753FD0028A3
:4022800006D005F0C9FB43425841C0B205F0B8FB10BDC046024B034A1A60034A5A6070478001002095230000A923000010B500F065F8FFF7EFFF10BD70B5060000250B4B24
:4022C00010E0725D5340012209E001241C405B08002C02D0064843409BB20132D2B2082AF3D901358D42ECD3180070BDFFFF000001A0FFFF70B582B005000E001400110096
:402300003000FFF7D9FF6B46D8800A4B1B68002B0CD022003100280098472818054B1B680222694606319847A01C00E0002002B070BDC0468001002070B582B006000C00B6
:4023400015000D4B5B68002B11D0984730186B469E1D094B5B6802223100984729002000FFF7AAFF3388984203D1012002E0002000E0002002B070BD8001002010B503483F
:4023800005F020FC024B187010BDC04600D100009402002010B51400024B06F0B5FA200010BDC046540E002010B51400024B06F093F9200010BDC046540E002010B505F0C6
:4023C00043FC084A1070084A1278904205D0064A1070002803D0012002E0002000E0002010BDC046B4020020A802002010B51E4B1B78002B08D1FFF7E1FF002833D01A4BBD
:4024000001221A705A702EE0174B5B78002B2AD0154A536801335360D622FF3293420ED8FFF7CCFF00281ED00F4B00221A705A705A6001321A725A7A01325A7213E00B4A9D
:40244000934209D8FFF7BAFF00280CD0064B00221A705A705A6006E0034B00221A705A705A601A725A7210BD880100205B030000014B187A7047C04688010020024B00222F
:402480001A725A727047C0468801002010B505F0CBFB041E10D10A4B9B7A002B0CD005F0CBFB002804D1064AD3680133D36003E0034AD368013BD360014B9C7210BDC046B9
:4024C00088010020054B1A69DB689A4203DD034A1361012000E000207047C04688010020054B1A69DB689A4203DA034A1361012000E000207047C0468801002010B505F048
:40250000A3FB10BD70B5FFF7F9FF00230FE002001A41D20709D52B4D5A00D1184C0021002C19A4886918621C8A800133DBB2002BEDD0254A938A01339BB29382272B3DD823
:402540003FE0250063001B195A001E4BD35C002B12D06200121953001A4AD3189B880B2B20D81000620011194B0000211954C31801229A70597015E0620012195300114A8B
:40258000D3189B88182B0DD91000620011194B0001211954C318597000229A70FFF776FB0A4B18606B005D196B00064AD31800229A80054B9A820134E4B200E00024002C40
:4025C000BFD070BDAC0200208801002098020020034B5878002802D000225A7001207047AC02002010B50D4B1C78002C0DD0FFF74DFB0B4B1B68C01A0A4B98420ADD074B31
:4026000000225A709A70012405E0FFF73FFB044B186000E00024200010BDC046AC02002098020020E703000010B5002302E0CC5CC45401339342FAD310BDC04630B500237F
:4026400004E0C55CCC5CA54204D101339342F8D3002000E0012030BD70B50500140000681B1A934207DB0AF0CDF82B689C4664442C60002000E0052070BDC0460368D21AE6
:40268000002A05DD1970036801330360002000E00520704770B505000800140029685B1A934207DB0AF0AEF82B689C4664442C60002000E0052070BD10B5034C012323703E
:4026C000FFF7E4FA606010BDA401002010B50D4B1B78002B10D0FFF7D9FA0A4B5B68C01A094B98420CDD05F09BFDFA20C00005F0A5FD05F0B1FA03E0FFF7C8FA014B5860EA
:4027000010BDC046A4010020E7030000036958787047C046036998780002DB78184370470369187900025B7918437047438882880F2B08D8002A03D0FF21034AD15402E0F6
:402740000021014AD1547047B8020020F0B503699C4643888288D608F6B20720104001D00136F6B2DBB2072732E06246D45D0137FFB2012E13D8002226E00F2B2AD8210094
:402780001141C90703D501251349CD5402E000251149CD540133DBB20132D2B200E00022082AEAD112E00F2B14D821001141C90703D501250849CD5402E000250649CD5451
:4027C0000133DBB20132D2B28242ECD1013EF6B2002ECAD1F0BDC046B802002043888288C72B02D85B0001495A52704758040020F0B504694688A5796D08002007230EE0D3
:40280000E25C1202591CC9B2615C0A430233DBB28119C72905D84900024FCA530130A842EED3F0BD5804002010B504004378062B0ED002D8052B05D00FE00F2B05D0102BBC
:4028400009D00AE0FFF772FF07E0FFF77FFF04E0FFF7C4FF01E0FFF7CBFFA369002B01D02000984710BDC04630B500250D4B11E0425D5340012209E001241C405B08002C1A
:4028800002D0094C63409BB20132D2B2082AF3D90135ADB28A1E9542EADB180A1B02034398B230BDFFFF000001A0FFFFF8B54F464646C0B48046456941888388DA08D2B22A
:4028C000944607271F4003D013000133DBB29C46C9B2E146032633E04B46012B12D8002326E0254B5B5C002B01D0012400E00024AB199440187844401C700131C9B20132D6
:40290000D2B200E00022082AEBD10136F6B213E0194A525C002A01D0012200E00022AC199A402078424022700131C9B20133DBB2BB42EDD10136F6B248460138C3B29946B2
:402940004B46002BC8D10236F6B202332B7043465B786B706346AB70B1B2434659812800FFF782FFB31E020AEA54013EA8550CBC90469946F8BDC046B8020020F8B54F4647
:402980004646C0B48046456941888388DA08D2B2944607271F4003D013000133DBB29C46C9B2E146032633E04B46012B12D8002326E0254B5B5C002B01D0012400E000247F
:4029C000AB199440187844401C700131C9B20132D2B200E00022082AEBD10136F6B213E0194A525C002A01D0012200E00022AC199A402078424022700131C9B20133DBB28F
:402A0000BB42EDD10136F6B248460138C3B299464B46002BC8D10236F6B2B1B24346598102232B7043465B786B706346AB702800FFF71AFFB31E020AEA54013EA8550CBCD5
:402A400090469946F8BDC046B8020020F0B5474680B480464569448883889C461F002200032317E0C72A0BD8184E5000815B090AE954591CC9B2865B6E540233DBB208E028
:402A8000E91800260E70591CC9B269180E700233DBB20132E1198A42E4D30233DCB2A1B24346598102232B7043465B786B7063465E00AE702800FFF7D7FEA31E020AEA547D
:402AC000013C285504BC9046F0BDC04658040020F0B5474680B480464569448883889C461F002200032317E0C72A0BD8184E5000815B090AE954591CC9B2865B6E540233E8
:402B0000DBB208E0E91800260E70591CC9B269180E700233DBB20132E1198A42E4D30233DCB2A1B24346598102232B7043465B786B7063465E00AE702800FFF795FEA31E13
:402B4000020AEA54013C285504BC9046F0BDC046C802002070B50400C369002B00D098476378102B2BD89B00154AD3589F462000FFF79CFE23E02000FFF700FF1FE02000E5
:402B8000FFF764FF1BE02000FFF7A2FF17E0656902232B7063786B7063881B0AAB70A378EB70A3881B0A2B7123796B7108212800FFF75AFE030AAB71E8710823638170BD6D
:402BC00000D9000010B543189A1E14782402013B1B781C4389B2FFF747FE844201D1012000E0002010BDC04610B504000069A1790378022B11D1FFF7E5FF00280FD020006B
:402C0000FFF784FD60702000FFF784FD60802000FFF786FDA080002002E0072000E0062010BDC046074B02221A70074A1A61074A5A61FF221A819A81054A9A61054ADA6198
:402C40007047C046E8070020E8060020E80500201D2E0000012D000010B504F09FFA034804F0ACFAFFF7DEFF10BDC046A92E000010B582B04388002B23D1134C01949134A6
:402C8000FF3423000C22114901A8FFF7E5FC04F0D7FE0100220001A8FFF7F0FC04F0E4FE0100220001A8FFF7E9FC23000C22084901A8FFF7D1FC23003C22064901A8FFF745
:402CC000CBFC02B010BDC046C80200205802002088020020600A002010B542885400064BE418372A07D1313A04492000FFF79CFC0023A371E37110BD5804002044D9000030
:402D000010B54378032B02D0042B03D004E0FFF7E3FF01E0FFF7ACFF10BDC046F0B5474680B482B0050041884C00374BE4180194C822531A5B00E418002925D1324B4800A9
:402D40004A1C5200D25A90468A1C5200D75ACA1C5200D65A0A1D5200D55A05314900CC5A185E03F037FA434618B203F069FA38B203F09CFA30B203F0D3FA28B203F00AFB91
:402D800020B203F041FB3AE014290BD11E4C4900605C04F049FE6B8801335B00E05C04F057FE2CE0192910D123002022174901A8FFF770FC23001022154901A8FFF76AFC77
:402DC00003F0D4FB04F02CF919E01E2908D123002822104901A8FFF75DFC04F0E1F80EE02D2908D1230030220B4901A8FFF752FC03F0D8FB03E04D2901D1FFF75DFC02B08F
:402E000004BC9046F0BDC046580400209C0A0020BC0A0020040B0020E009002010B54378102B01D1FFF77AFF10BDC04670B51A4B1B78002B11D0184C657804F099FA174BC7
:402E400058556378FD2B02D80133134A5370124B00229A705A78124BDA80124B1B78002B18D0002004F0B4FD0B4C657804F080FA0A4B58556378FD2B02D80133064A5370D2
:402E8000054B5978064AD18001221A70002205490A709A7070BDC046AC010020E8060020E8070020BC00002010B50C4B1B685B0708D5FFF7BBFF0A4B1B68DB06F9D104227F
:402EC000084B1A60084B1B689B0506D5002004F09FFE80229200054B1A6010BDCC0F244008032440C00F24408C0F2440800F24400E4B1B78002B18D00C4BDA780C4BDB8803
:402F00009A4203D109498A7801328A70074A9278032A08D90121074A1170044A11710021117091705170014AD3707047AC010020E8070020BC00002070B504000D0001207B
:402F400004F066FE2900200004F086F970BDC046014B58797047C046AC01002010B5084B5B79002B0AD0FEF791FE054B9B68C01A044B984202DD0022014B5A7110BDC046AD
:402F8000AC010020B70B000010B5174B1B79002B26D004F041FD43425841C0B204F030FD1248FFF721FE002817D1104C2000FFF73BFC2000FFF7CEFD04F096FA4342584118
:402FC000C0B204F085FA6069A17AFFF7B5FF064C01236371FEF75AFEA0600022024B1A71FFF7BCFF10BDC046AC010020E80700200122014B1A707047B801002010B5064BCE
:403000001878002806D000221A70FEF73FFE034B1860012010BDC046B80100200808002010B50400FEF732FE064B1B68C01AA04205DBFEF72BFE034B1860012000E00020FE
:4030400010BDC0460808002070B51500074A1468844201DA106003E08C4201DD034A11601A000249280009F0CDFB70BDBC01002010B5044C2060002323710A2107F020F80A
:40308000617110BDBC010020F8B5114D2879013009F02CFB02000B0000200E4905F090FD09F0EEFA07000A2106F024FF04002E683900300007F004F80800210006F01AFF37
:4030C0006043361A6879444334192C60F8BDC046BC01002000002440F0B55F465646C0B48DB08346069107921F0014AB40CB1B789A4616AB1C78FFF76BFA002828D0E74AB3
:4031000013790133DBB21371E54A1278934202D30022E24B1A71FFF76BFFE04D2879013009F0E4FA02000B000020DE4905F048FD09F0A6FA0A21089006F0DCFE0990089957
:40314000286806F0BDFF0800099906F0D3FE6871FFF7C6F900280ED0D04A53790133DBB25371092B02D90022CC4B5A71FFF78CFFFFF73EFF12E0FFF7A5F900280ED0C74B38
:403180005B79002B02D10A22C44B5A71C34A5379013B5371FFF778FFFFF72AFFFFF72EFF002806D1F530FF30FFF73AFF002800D1BEE1BD4D5B460093BC4BBD4A642128009C
:4031C00009F032FB280002F04DFC002C0FD1B64D0297079B0193069B0093B64BB64A6421280009F021FB280002F03CFC1EE0AE4D04970A21079806F063FF03910A2107980B
:4032000006F078FE02900A21069806F059FF01910A21069806F06EFE0090A64BA74A6421280009F001FB280002F01CFC00230B93524631000BA809F0E5FA002C0DD19A4D70
:4032400001970B9B00939E4B9E4A6421280009F0EBFA280002F006FC15E00B9E924D02970A21300006F02CFF01910A21300006F041FE0090924B944A6421280009F0D4FA92
:40328000280002F0EFFB002C0AD1874C8F4B904A6421200009F0C8FA200002F0E3FB09E0814C8A4B8B4A6421200009F0BDFA200002F0D8FB7A4B1B78032B1CD1844D7A4C88
:4032C000854B2A006421200009F0AEFA200002F0C9FB824B2A006421200009F0A5FA200002F0C0FB7E4B2A006421200009F09CFA200002F0B7FB6A4B1B78042B28D1744D9B
:40330000694C754B2A006421200009F08DFA200002F0A8FB714B2A006421200009F084FA200002F09FFB5D4B18686E4906F0C8FE0800FA21890006F0DDFD0090684B6A4A58
:403340006421200009F070FA200002F08BFB6BE0052B31D1544C604B5D4A6421200009F063FA200002F07EFB4C4E6049306806F0A7FE08005C4D5B4906F0BCFD0090574B0C
:403380002A006421200009F04FFA200002F06AFB3068544906F094FE0800FA21890006F0A9FD00904E4B2A006421200009F03CFA200002F057FB37E0062B35D14A4D3A4C8A
:4033C000364E4A49306806F095FD0090424B2A006421200009F028FA200002F043FB4349306806F06DFE08003E4906F083FD00903A4B2A006421200009F016FA200002F0B6
:4034000031FB3068374906F05BFE0800FA21890006F070FD0090324B2A006421200009F003FA200002F01EFB1C4DFA218900286806F046FE08002C4E1B4C642106F05AFD5B
:4034400000902B4B32006421200009F0EDF9200002F008FB6421286806F032FE08000A2106F048FD0090234B32006421200009F0DBF9200002F0F6FA0A21286806F020FE5F
:4034800000911D4B32006421200009F0CDF9200002F0E8FA2E7900243CE0C046BC010020BD00002000002440A00800204CD9000054D9000060D9000064D9000078D900009D
:4034C00090D9000094D90000A4D90000B8D90000BCD90000C8D90000D4D90000D8D90000DCD9000010270000E0D90000A0860100ECD90000F0D90000F4D900000F4D2300AE
:403500000F4A6421280009F08FF9280002F0AAFA0134E4B20B4B1B789C42EFD3074C3300094A6421200009F07FF9200002F09AFA0DB00CBC92469B46F0BDC046A0080020A4
:40354000F8D90000BD00002008DA0000014B18607047C046C401002070B51500074A1468844201DA106003E08C4201DD034A11601A000249280009F045F970BDC40100201A
:40358000F0B587B002900D00160003930CAB1F78FEF7A6FF002809D0314A136801331360B34200DB1560FFF723FD0FE0FEF78AFF00280BD02A4B1B68002B01D1284B1E60AD
:4035C000274A1368013B1360FFF712FDFFF716FD002805D1F530FF30FFF722FD00283DD01F4B1B680D9A9A4238DD1E4C029B00931D4B1E4A6421200009F016F9200002F0D8
:4036000031FA731E01930095194B1A4A6421200009F00AF9200002F025FA002305933A00039905A809F0EEF8059B0093124B134A6421200009F0F8F8200002F013FA084B01
:403640001B68DB000E9AD35800930D4B074A6421200009F0E9F8200002F004FA07B0F0BDC4010020A008002018DA000054D9000020DA000028DA000038DA0000E0D9000057
:4036800040DA00000022014B1A707047C8010020F0B585B00024A7E026005C4DA300595DED186B781B020B431A00A878000403001343E87800061843554906F061FF07F015
:4036C000F9F90700534D0A2106F0FAFC02910A21380006F00FFC019000944F4B4F4A6421280009F0A1F8280002F0BCF94C4B1A785B781B02134326D1494A231D9B009D5CF0
:40370000D3185A7812022A4311009878000402000A43D878000610433D4906F031FF07F0C9F905000A2106F0CBFC02910A21280006F0E0FB019000943A4B384A64213548F7
:4037400009F072F825E0314AA31D9B009D5CD3185A7812022A4311009878000402000A43D878000610432A4906F00AFF07F0A2F905000A2106F0A4FC02910A21280006F011
:40378000B9FB01900094274B244A6421214809F04BF8204802F066F9214B9A78DB781B02134312D07300204A9B5A002B0DD0194D0123019300961D4B1D4A6421280009F044
:4037C00033F8280002F04EF90CE0124D0C2301930096164B164A6421280009F025F8280002F040F90134E4B2052C00D854E704F027F902F079F9FFF7ABFB02F0BBF9084BA6
:40380000187802F053F905B0F0BDC046600A002000002041A008002048DA00004CDA0000040B002060DA00008802002050DC000064DA0000F0B557464E46C0B487B0844F86
:403840003023F95C0133FB5C1B020B431A003223F85C0004030013433322B85C000618437C4906F08DFE07F025F97B4E7B4D7C4C0A21059006F024FC02910A21059806F0E5
:4038800039FB019001239A46009333002A006421200008F0C9FF200002F0E4F83423F95C0133FB5C1B020B431A003623F85C0004030013433722B85C00061843654906F0C4
:4038C0005FFE07F0F7F80A21059006F0F9FB02910A21059806F00EFB019002239946009333002A006421200008F09EFF200002F0B9F83823F95C0133FB5C1B020B431A003F
:403900003A23F85C0004030013433B22B85C00061843504906F034FE07F0CCF807000A2106F0CEFB02910A21380006F0E3FA01900323009333002A006421200008F074FFBA
:40394000200002F08FF8474F39797B791B020B431A00B879000403001343F879000618433C4906F00DFE07F0A5F83F4E0A21059006F0A6FB02910A21059806F0BBFA0190F8
:403980000023009333002A006421200008F04CFF200002F067F8397A7B7A1B020B431A00B87A000403001343F87A00061843294906F0E6FD07F07EF80A21059006F080FB23
:4039C00002910A21059806F095FA01905346009333002A006421200008F026FF200002F041F8397B7B7B1B020B431A00B87B000403001343F87B00061843164906F0C0FD1B
:403A000007F058F80A21059006F05AFB02910A21059806F06FFA01904B46009333002A006421200008F000FF200002F01BF804F007F802F059F8FFF78BFA02F09BF83878C1
:403A400002F034F807B00CBC91469A46F0BDC046600A00200000204148DA00004CDA0000A0080020040B002060DA000070B584B04F4C217863781B020B431A00A0780004D2
:403A800003001343E078000618434A4906F078FD07F010F80600484D0A2106F011FB01910A21300006F026FA0090444B444A6421280008F0B9FE280001F0D4FF21796379C1
:403AC0001B020B431A00A079000403001343E0790006184306F0EEFF3A4E00903A4B32006421280008F0A0FE280001F0BBFF217A637A1B020B431A00A07A000403001343D5
:403B0000E07A0006184306F0D5FF00902F4B32006421280008F088FE280001F0A3FF217B637B1B020B431A00A07B000403001343E07B0006184306F0BDFF0090244B3200C8
:403B40006421280008F070FE280001F08BFF00242AE0204DA300595DED186B781B020B431A00A878000403001343E87800061843104906F005FD06F09DFF06000E4D0A2181
:403B800006F09EFA02910A21300006F0B3F9019001340094104B114A6421280008F044FE280001F05FFFE4B2052CD2D904B070BDBC0A002000002041A008002070DA0000CD
:403BC00074DA0000E0D9000084DA00008CDA000094DA00009C0A00209CDA00004CDA000010B5FEF77DFC002820D0394A13780133DBB21370022B02D90022354B1A70344BDA
:403C00001B78012B08D0002B02D0022B08D00AE0012002F053FA06E0022002F04FFA02E0052002F04BFA02F051FA23E0FEF74AFC00281FD0264B1B78002B02D10322244BF8
:403C40001A70234A1378013BDBB21370012B08D0002B02D0022B08D00AE0012002F02EFA06E0022002F02AFA02E0052002F026FA02F02CFA164B1B78012B0CD8FEF7F8FB10
:403C8000002808D0FEF7FAFB03F0DAFE43425841C0B203F0C9FE02F0FFF9002805D1F530FF3002F0E5F9002810D0094B1B78012B07D0002B02D0022B06D007E0FFF7E8FC46
:403CC00004E0FFF7B7FD01E0FFF7D0FE10BDC046C801002010B586B0194C217C637C1B020B431A00A07C000403001343E07C00061843144906F044FC06F060FA0590124C68
:403D0000217863781B020B431A00A078000403001343E078000618430A4906F031FC06F0C9FE0200012302930333019305AB0093064B00210648FFF7CFF906B010BDC0465A
:403D4000040B0020000020419C0A0020CCDB0000D4DB000010B586B0194C217D637D1B020B431A00A07D000403001343E07D00061843144906F004FC06F020FA0590124CA6
:403D8000217963791B020B431A00A079000403001343E079000618430A4906F0F1FB06F089FE0200012302930333019305AB0093064B00210648FFF78FF906B010BDC04697
:403DC000040B0020000020419C0A0020CCDB0000E0DB000010B586B0194C217E637E1B020B431A00A07E000403001343E07E00061843144906F0C4FB06F0E0F90590124C98
:403E0000217A637A1B020B431A00A07A000403001343E07A000618430A4906F0B1FB06F049FE0200012302930333019305AB0093064B00210648FFF74FF906B010BDC046D2
:403E4000040B0020000020419C0A0020CCDB0000ECDB000010B586B0194C217F637F1B020B431A00A07F000403001343E07F00061843144906F084FB06F0A0F90590124C87
:403E8000217B637B1B020B431A00A07B000403001343E07B000618430A4906F071FB06F009FE0200012302930333019305AB0093064B00210648FFF70FF906B010BDC0460E
:403EC000040B0020000020419C0A0020CCDB0000F8DB000010B586B01B4C2023E15C0133E35C1B020B431A002223E05C0004030013432322A05C00061843144906F040FB0A
:403F000006F05CF90590124C217C637C1B020B431A00A07C000403001343E07C000618430A4906F02DFB06F0C5FD0200012302930333019305AB0093064B00210648FFF765
:403F4000CBF806B010BDC046040B0020000020419C0A0020CCDB000004DC000010B586B01B4C2423E15C0133E35C1B020B431A002623E05C0004030013432722A05C00060D
:403F80001843144906F0FCFA06F018F90590124C217D637D1B020B431A00A07D000403001343E07D000618430A4906F0E9FA06F081FD0200012302930333019305AB0093C0
:403FC000064B00210648FFF787F806B010BDC046040B0020000020419C0A0020CCDB000010DC000010B50A4C217C637C1B020B431A00A07C000403001343E07C00061843C8
:40400000044906F0BDFA06F0D9F8FFF731F810BD040B00200000204110B50A4C217D637D1B020B431A00A07D000403001343E07D00061843044906F0A3FA06F0BFF8FFF76A
:4040400017F810BD040B00200000204110B50A4C217E637E1B020B431A00A07E000403001343E07E00061843044906F089FA06F0A5F8FEF7FDFF10BD040B002000002041D3
:4040800010B50A4C217F637F1B020B431A00A07F000403001343E07F00061843044906F06FFA06F08BF8FEF7E3FF10BD040B00200000204110B50C4C2023E15C0133E35C39
:4040C0001B020B431A002223E05C0004030013432322A05C00061843044906F051FA06F06DF8FEF7C5FF10BD040B00200000204110B50C4C2423E15C0133E35C1B020B433D
:404100001A002623E05C0004030013432722A05C00061843044906F033FA06F04FF8FEF7A7FF10BD040B00200000204110B582B000230193144C217863781B020B431A0031
:40414000A078000403001343E078000618430F4906F016FA06F0AEFC0100042301AA0020FEF772FF019806F00FFD084906F03EF8074B1874020A5A74020C9A74000ED87474
:4041800002F00EFF02B010BD9C0A002000002041040B002010B582B000230193144C217963791B020B431A00A079000403001343E079000618430F4906F0E2F906F07AFC5D
:4041C0000100042301AA0020FEF73EFF019806F0DBFC084906F00AF8074B1875020A5A75020C9A75000ED87502F0DAFE02B010BD9C0A002000002041040B002010B582B023
:4042000000230193144C217A637A1B020B431A00A07A000403001343E07A000618430F4906F0AEF906F046FC0100042301AA0020FEF70AFF019806F0A7FC084905F0D6FFCD
:40424000074B1876020A5A76020C9A76000ED87602F0A6FE02B010BD9C0A002000002041040B002010B582B000230193144C217B637B1B020B431A00A07B00040300134318
:40428000E07B000618430F4906F07AF906F012FC0100042301AA0020FEF7D6FE019806F073FC084905F0A2FF074B1877020A5A77020C9A77000ED87702F072FE02B010BDC1
:4042C0009C0A002000002041040B002010B582B000230193164C217C637C1B020B431A00A07C000403001343E07C00061843114906F046F906F0DEFB0100042301AA0020D0
:40430000FEF7A2FE019806F03FFC0A4905F06EFF094B20229854010A01329954010C01329954000E0132985402F03AFE02B010BD9C0A002000002041040B002010B582B06C
:4043400000230193164C217D637D1B020B431A00A07D000403001343E07D00061843114906F00EF906F0A6FB0100042301AA0020FEF76AFE019806F007FC0A4905F036FF9C
:40438000094B24229854010A01329954010C01329954000E0132985402F002FE02B010BD9C0A002000002041040B002000B585B0064B01AA03CB03C202230093044B022287
:4043C00000210448FFF7DCF805B000BDA0DA0000040B00201CDC000000B585B001AA074B083303CB03C202230093054B022200210448FFF7C5F805B000BDC046A0DA000080
:40440000060B00202CDC000010B5044A1378507800021843FFF79AF810BDC046040B002010B5044A9378D07800021843FFF78EF810BDC046040B002010B50223034A02215B
:404440000020FFF789F802F0ABFD10BD040B002010B50223034A02210020FFF77DF802F09FFD10BD060B0020F0B587B0494C217F637F1B020B431A00A07F000403001343AA
:40448000E07F00061843257A637A1B022B431A00A17A09040B001343E17A0906194306F06FF83D4905F0A2FE3C4F39797B791B020B431A00BE79360433001343FE793606F1
:4044C0001E43311C06F05CF839787B781B020B431A00BD782D042B001343FD782D061D43291C05F083FE071C217E637E1B020B431A00A07E000403001343E07E000618438F
:40450000217B637B1B020B431A00A17B09040B001343E17B0906194306F032F81E4905F065FE011C301C06F02BF8291C05F05EFE041C1B4D29796B791B020B431A00A87980
:40454000000403001343E87900061843154906F017F805F033FE05901249381C06F010F8051C1049201C06F00BF806F0A3FA0400281C06F09FFA01000123029303330193B4
:4045800005AB0093084B22000848FEF7A5FD07B0F0BDC0469C0A00200000C842BC0A0020040B002000002041CCDB00004CDD0000F0B5474680B486B0494B9846197F5B7F5C
:4045C0001B020B431A004346987F0004030013434246D07F00061843117C537C1B020B431A0043469E7C3604330013434246D67C36061E43311C05F0C3FF3A4905F0F6FDD4
:40460000394F397A7B7A1B020B431A00BD7A2D042B001343FD7A2D061D43291C05F0B0FF39787B781B020B431A00BC78240423001343FC7824061C43211C05F0D7FD071CC5
:404640004346187E5B7E1B0203431A004346997E09040B0013434246D17E09061943301C05F08EFF1F4905F0C1FD011C281C05F087FF211C05F0BAFD041C1C4D297A6B7AB6
:404680001B020B431A00A87A000403001343E87A00061843164905F073FF05F08FFD05901349381C05F06CFF051C1149201C05F067FF06F0FFF90400281C06F0FBF9010014
:4046C000012302930333019305AB0093094B22000948FEF701FD06B004BC9046F0BDC0469C0A00200000C842BC0A0020040B002000002041CCDB000058DD0000F0B54746E7
:4047000080B486B0494B9846197F5B7F1B020B431A004346987F0004030013434246D07F00061843117D537D1B020B431A0043469E7D3604330013434246D67D36061E43AF
:40474000311C05F01DFF3A4905F050FD394F397B7B7B1B020B431A00BD7B2D042B001343FD7B2D061D43291C05F00AFF39787B781B020B431A00BC78240423001343FC78B5
:4047800024061C43211C05F031FD071C4346187E5B7E1B0203431A004346997E09040B0013434246D17E09061943301C05F0E8FE1F4905F01BFD011C281C05F0E1FE211C1A
:4047C00005F014FD041C1C4D297B6B7B1B020B431A00A87B000403001343E87B00061843164905F0CDFE05F0E9FC05901349381C05F0C6FE051C1149201C05F0C1FE06F07F
:4048000059F90400281C06F055F90100012302930333019305AB0093094B22000948FEF75BFC06B004BC9046F0BDC0469C0A00200000C842BC0A0020040B0020000020417B
:40484000CCDB000064DD000010B50A4C217963791B020B431A00A079000403001343E07900061843044905F08BFE05F0A7FCFEF7FFFB10BD040B00200000204110B50A4C40
:40488000217A637A1B020B431A00A07A000403001343E07A00061843044905F071FE05F08DFCFEF7E5FB10BD040B00200000204110B50A4C217B637B1B020B431A00A07B33
:4048C000000403001343E07B00061843044905F057FE05F073FCFEF7CBFB10BD040B002000002041F0B583B0474C217F637F1B020B431A00A07F000403001343E07F000639
:404900001843257A637A1B022B431A00A17A09040B001343E17A0906194305F031FE3B4905F064FC3A4F39797B791B020B431A00BE79360433001343FE7936061E43311CA0
:4049400005F01EFE39787B781B020B431A00BD782D042B001343FD782D061D43291C05F045FC071C217E637E1B020B431A00A07E000403001343E07E00061843217B637BB7
:404980001B020B431A00A17B09040B001343E17B0906194305F0F4FD1C4905F027FC011C301C05F0EDFD291C05F020FC00230193184905F0E5FD06F07DF80100042301AAF3
:4049C0000020FEF741FB019800280BD006F0DCF8011C381C05F0DEFB002803D0381C05F0EDFB0190019806F0CFF80A4905F0FEFB094B1871020A5A71020C9A71000ED87149
:404A000002F0CEFA03B0F0BD9C0A00200000C842BC0A002000002041040B0020F0B5474680B482B0474B9846197F5B7F1B020B431A004346987F0004030013434246D07F43
:404A400000061843117C537C1B020B431A0043469E7C3604330013434246D67C36061E43311C05F08DFD384905F0C0FB374F397A7B7A1B020B431A00BD7A2D042B0013437E
:404A8000FD7A2D061D43291C05F07AFD39787B781B020B431A00BC78240423001343FC7824061C43211C05F0A1FB071C4346187E5B7E1B0203431A004346997E09040B0022
:404AC00013434246D17E09061943301C05F058FD1D4905F08BFB011C281C05F051FD211C05F084FB00230193194905F049FD05F0E1FF0100042301AA0020FEF7A5FA019809
:404B000000280BD006F040F8011C381C05F042FB002803D0381C05F051FB0190019806F033F80B4905F062FB0A4B1872020A5A72020C9A72000ED87202F032FA02B004BC67
:404B40009046F0BD9C0A00200000C842BC0A002000002041040B0020F0B5474680B482B0474B9846197F5B7F1B020B431A004346987F0004030013434246D07F0006184338
:404B8000117D537D1B020B431A0043469E7D3604330013434246D67D36061E43311C05F0EFFC384905F022FB374F397B7B7B1B020B431A00BD7B2D042B001343FD7B2D0629
:404BC0001D43291C05F0DCFC39787B781B020B431A00BC78240423001343FC7824061C43211C05F003FB071C4346187E5B7E1B0203431A004346997E09040B0013434246EA
:404C0000D17E09061943301C05F0BAFC1D4905F0EDFA011C281C05F0B3FC211C05F0E6FA00230193194905F0ABFC05F043FF0100042301AA0020FEF707FA019800280BD0F9
:404C400005F0A2FF011C381C05F0A4FA002803D0381C05F0B3FA0190019805F095FF0B4905F0C4FA0A4B1873020A5A73020C9A73000ED87302F094F902B004BC9046F0BD4E
:404C80009C0A00200000C842BC0A002000002041040B002010B586B0104C217863781B020B431A00A078000403001343E078000618430B4905F064FC05F080FA059001235F
:404CC00002930333019305AB0093064B064A01210648FEF701FA06B010BDC046BC0A002000002041CCDB00009686010020DF000010B586B00E4C217963791B020B431A002E
:404D0000A079000403001343E0790006184305F055FA0590002302930433019305AB0093044B054A64210548FEF7D6F906B010BDBC0A00202CDF00003F420F0030DF00005D
:404D400010B586B00E4C217A637A1B020B431A00A07A000403001343E07A0006184305F02DFA0590002302930433019305AB0093044B054A64210548FEF7AEF906B010BDA9
:404D8000BC0A00202CDF00003F420F0034DF000010B586B00E4C217B637B1B020B431A00A07B000403001343E07B0006184305F005FA0590002302930433019305AB009388
:404DC000044B054A64210548FEF786F906B010BDBC0A00202CDF00003F420F0038DF000010B586B0104C217863781B020B431A00A078000403001343E078000618430B49E2
:404E000005F0BEFB05F0DAF90590012302930333019305AB0093064B064A01210648FEF75BF906B010BDC0469C0A002000002041CCDB0000062700003CDF000010B586B0AD
:404E4000104C217963791B020B431A00A079000403001343E079000618430B4905F090FB05F0ACF90590012302930333019305AB0093064B064A01210648FEF72DF906B000
:404E800010BDC0469C0A002000002041CCDB00000627000048DF000010B586B0104C217A637A1B020B431A00A07A000403001343E07A000618430B4905F062FB05F07EF965
:404EC0000590012302930333019305AB0093064B064A01210648FEF7FFF806B010BDC0469C0A002000002041CCDB00000627000054DF000010B586B0104C217B637B1B02B5
:404F00000B431A00A07B000403001343E07B000618430B4905F034FB05F050F90590012302930333019305AB0093064B064A01210648FEF7D1F806B010BDC0469C0A0020A6
:404F400000002041CCDB00000627000060DF000010B586B0104C217C637C1B020B431A00A07C000403001343E07C000618430B4905F006FB05F022F9059001230293033351
:404F8000019305AB0093064B064A01210648FEF7A3F806B010BDC0469C0A002000002041CCDB0000062700006CDF000010B586B0104C217D637D1B020B431A00A07D00042F
:404FC00003001343E07D000618430B4905F0D8FA05F0F4F80590012302930333019305AB0093064B064A01210648FEF775F806B010BDC0469C0A002000002041CCDB000079
:405000000627000078DF000010B586B0104C217F637F1B020B431A00A07F000403001343E07F000618430B4905F0AAFA05F0C6F80590012302930333019305AB0093064B06
:40504000642201210548FEF747F806B010BDC0469C0A00200000204184DF000088DF000010B586B0114C217E637E1B020B431A00A07E000403001343E07E000618430C49A1
:4050800005F07EFA05F09AF80590012302930333019305AB0093074BFA229200C82189000548FEF719F806B010BDC0469C0A00200000204184DF000090DF000010B50A4C3F
:4050C000217863781B020B431A00A078000403001343E07800061843044905F051FA05F06DF8FDF7C5FF10BDBC0A00200000204110B5094C217963791B020B431A00A079A8
:40510000000403001343E0790006184305F056F8FDF7AEFF10BDC046BC0A002010B5094C217A637A1B020B431A00A07A000403001343E07A0006184305F040F8FDF798FFBA
:4051400010BDC046BC0A002010B5094C217B637B1B020B431A00A07B000403001343E07B0006184305F02AF8FDF782FF10BDC046BC0A002010B50A4C217863781B020B43EA
:405180001A00A078000403001343E07800061843044905F0F5F905F011F8FDF769FF10BD9C0A00200000204110B50A4C217963791B020B431A00A079000403001343E07944
:4051C00000061843044905F0DBF904F0F7FFFDF74FFF10BD9C0A00200000204110B50A4C217A637A1B020B431A00A07A000403001343E07A00061843044905F0C1F904F0DE
:40520000DDFFFDF735FF10BD9C0A00200000204110B50A4C217B637B1B020B431A00A07B000403001343E07B00061843044905F0A7F904F0C3FFFDF71BFF10BD9C0A0020EF
:405240000000204110B50A4C217C637C1B020B431A00A07C000403001343E07C00061843044905F08DF904F0A9FFFDF701FF10BD9C0A00200000204110B50A4C217D637D96
:405280001B020B431A00A07D000403001343E07D00061843044905F073F904F08FFFFDF7E7FE10BD9C0A00200000204110B50A4C217F637F1B020B431A00A07F00040300EC
:4052C0001343E07F00061843044905F059F904F075FFFDF7CDFE10BD9C0A00200000204110B50A4C217E637E1B020B431A00A07E000403001343E07E00061843044905F04D
:405300003FF904F05BFFFDF7B3FE10BD9C0A00200000204100B583B000230193043301AA0A490120FDF790FE019805F02DFC084904F05CFF074B1870020A5A70020C9A70B8
:40534000000ED87001F06CFE03B000BD9686010000002041BC0A002000B583B000230193043301AA09496420FDF76EFE019805F00BFC074B1871020A5A71020C9A71000E83
:40538000D87101F04DFE03B000BDC0463F420F00BC0A002000B583B000230193043301AA09496420FDF750FE019805F0EDFB074B1872020A5A72020C9A72000ED87201F056
:4053C0002FFE03B000BDC0463F420F00BC0A002000B583B000230193043301AA09496420FDF732FE019805F0CFFB074B1873020A5A73020C9A73000ED87301F011FE03B0E4
:4054000000BDC0463F420F00BC0A002000B583B000230193043301AA0A490120FDF714FE019805F0B1FB084904F0E0FE074B1870020A5A70020C9A70000ED87001F096F83E
:4054400003B000BD06270000000020419C0A002000B583B000230193043301AA0A490120FDF7F2FD019805F08FFB084904F0BEFE074B1871020A5A71020C9A71000ED87155
:4054800001F074F803B000BD06270000000020419C0A002000B583B000230193043301AA0A490120FDF7D0FD019805F06DFB084904F09CFE074B1872020A5A72020C9A7272
:4054C000000ED87201F052F803B000BD06270000000020419C0A002000B583B000230193043301AA0A490120FDF7AEFD019805F04BFB084904F07AFE074B1873020A5A737A
:40550000020C9A73000ED87301F030F803B000BD06270000000020419C0A002000B583B000230193043301AA0A490120FDF78CFD019805F029FB084904F058FE074B18747D
:40554000020A5A74020C9A74000ED87401F00EF803B000BD06270000000020419C0A002000B583B000230193043301AA0A490120FDF76AFD019805F007FB084904F036FEC7
:40558000074B1875020A5A75020C9A75000ED87500F0ECFF03B000BD06270000000020419C0A002000B583B000230193043301AA64210120FDF748FD019805F0E5FA0749FD
:4055C00004F014FE064B1877020A5A77020C9A77000ED87700F0CAFF03B000BD000020419C0A002000B583B000230193043301AAFA218900C8208000FDF726FD019805F0EA
:40560000C3FA074904F0F2FD064B1876020A5A76020C9A76000ED87600F0A8FF03B000BD000020419C0A0020F0B54F4680B484B0FDF7E4FC002805D1F530FF30FDF7F0FC6F
:4056400000285CD0304B1B789B00304A9A58D6B22F495F58012E02D9023EF6B200E00026FF23134099463B691A1F914505D9052B02D9053BDEB200E0002600243DE0039474
:4056800035193B699D4213D3224D2300224A6421280007F0C9F8280000F0E4F923001F4A6421280007F0C0F8280000F0DBF922E02300194A6421174807F0B6F8154800F0A9
:4056C000D1F9EB005B1B9A00BB5800932300144A6421104807F0A8F80E4800F0C3F9A94509D10C4D039B0F4A6421280007F09CF8280000F0B7F90134E4B2042CBFD904B0E9
:4057000004BC9146F0BDC046CC0100200C0800201C080020A008002060E000006CE000007CE000008CE00000044A0023137004490B6004480449086053707047CC0100208A
:405740000C080020A4DC00001C08002010B5FCF79DFA014B586010BDCC01002010B50B4B5B78002B0FD0FCF791FA084B5B68C01A074B984209DD0022044B5A700121054802
:4057800000F00AFB01E0FFF7E1FF10BDCC010020DF930400E13B00000020704730B583B0494B1A7893004949595849481C58CB005B1A980024182379052B00D982E09B004B
:4057C0004448C3589F46002A08D0013AD2B23E4B1A70920000213D4BD15073E0002971D1394C00236370FFF7D7FF2072617A3A4800F0D2FAFDF746FF64E0531C032B61DCE6
:40580000DAB2314B1A70314892000121115023692F4C135110181B6900910022033100F05FFA4FE0284B9B7A002B0DD1A068002805D0217E00F0B0FA0122234B9A72E3681B
:40584000002B3FD098473DE01F4D0023AB72217E224800F0A1FA2B789B001C4818181C4A9B581B69012200920022042100F038FA28E0154B9B7A002B0FD1E368002B00D017
:405880009847A06800281DD00F4D03236B70217E00F082FA0123AB7214E00B4C012565700023A37203210D4800F076FA23789B0006481818064A9B581B6900950022042195
:4058C00000F00EFA03B030BDCC0100200C0800201C08002048E00000E13B00002956000030B583B0FFF73AFF554B5B78002B4DD100F04CFA002803D10121524800F04CFAC1
:40590000FCF770FE002800D197E0FDF771FB4C4C0123637000F03AFA607200F037FA012803D000F033FA022813D1474B1A785B781B02134306D1424B1B789B004349444A53
:40594000995010E03E4B1B789B004249404A995009E000F01BFA052805D1394B1B789B003D493B4A995003213C4800F015FA344B1B789B003A481818354A9B581B690122E3
:4059800000920022042100F0ABF956E0012B1FD100F052F9002801D0FDF72AFB284B1B789B002F4818182A4A9B581B69013B012200920022042100F069F900F039F90028D4
:4059C0003BD0FDF715FBFFF7C1FEFFF7E7FE34E0032B32D11A4A13789B0021495C581C495D58937A002B12D100F022F900280ED0FDF7FEFAE3001C1BA300ED186B69002B28
:405A000000D09847FFF7A2FEFFF7C8FE15E00C4B9B7A012B11D1FCF7E5FD00280DD0FDF7E7FAE3001C1BA300ED186B69002B00D09847FFF78BFEFFF7B1FE03B030BDC0460D
:405A4000CC010020E13B0000040B0020B0DA00001C080020A4DC0000B4DD0000295600000C08002010B5040006F032FF0100200001F0BCFDFF2001F07FFDFF2001F07CFD8C
:405A8000FF2001F079FD10BD10B50300044C054A0549200006F0FAFE2000FFF7E3FF10BD2C080020A4E00000ACE0000010B582B0002801D1074B00E0074B084C0093084BF8
:405AC000084A6421200006F0AFFE2000FFF7CAFF02B010BD98DC00009CDC00002C080020D4E0000054D9000030B583B0002819D01A4D1B4C1B4B00932B001B4A6421200068
:405B000006F092FE2000FFF7ADFF8023DB0000932B00164A6421200006F086FE2000FFF7A1FF18E00D4D0E4C114B00932B000E4A6421200006F078FE2000FFF793FFF823BA
:405B40001B0200932B00094A6421200006F06CFE2000FFF787FF03B030BDC046D8E000002C080020E0E0000054D90000E4E00000F0E0000030B583B0002819D0244D254C18
:405B8000254B00932B00254A6421200006F04CFE2000FFF767FF8023DB0000932B00204A6421200006F040FE2000FFF75BFF2CE01C4A13780133DBB21370012B06D9130099
:405BC00000221A705A7851424A415A70114C164B00930F4B114A6421200006F025FE2000FFF740FF0F4B5B78002B02D0F8231B0200E00E4B074C0093054B094A642120005D
:405C000006F012FE2000FFF72DFF03B030BDC046F4E000002C080020F8E0000054D90000E4E00000DC01002004E100003084000010B5FCF7CDFC10BD10B5FCF751FC002874
:405C400009D00F4B1B680F4A934212DC01330C4A1360012012E0FCF735FC00280BD0084B1B68094A934208DB013B054A1360012004E0012002E0002000E0012010BDC04640
:405C8000E0010020FFE10400011EFBFFF0B585B00700019116001D000A9C104B1B686343AB4205DD2100100004F024F90B4B18600A4B1B6863439E4205DD2100280004F0BA
:405CC00019F9064B1860054B1B685C430394019A03A9380006F096FD05B0F0BDE001002030B583B015001C00002301930A00010001A806F087FD019BA34201DD0023019311
:405D0000019BAB4200DA01940699019804F0F2F8014B186003B030BDE001002010B5154B04221A601A68D8239B001A4203D01A00104B1A601DE001F017FC002819D001F0F2
:405D4000DDFCC4B20C4B1B78002B12D101220B4B1A70FBF79BFF0A4B18600A4A13880A49CC5401339BB21380C72B02D90122024B1A7010BDC00F2540040900209C08002051
:405D8000980800209608002008090020014B18787047C046E401002070B505000C0006290AD8064B1B78994206D00800FFF76CFE034B1D60014B1C7070BDC046E401002077
:405DC000C000002010B501F0B3FB034801F0C0FB0122024B1A7010BD1D5D0000E401002010B596239B01984208D0E1235B02984209D10021332001F0FBFE04E000219C2022
:405E0000800001F0F5FE10BD10B50400FBF73EFF054B5B68C31A64206043834201DB012000E0002010BDC046E401002010B5044C237A01332372FBF729FF606010BDC04660
:405E4000E401002010B5034C2072FBF71FFF606010BDC046E40100200022024B1A80024B1A707047960800209C08002010B50400FFF7F2FF2000FFF7F5FDFFF7D7FF10BD65
:405E8000F0B583B001928BB2144C2588AB421CD9002020E0124CE45C844214D1EC1A8C4218D35C18671E0E4EF25DA71EF75D033C345DFF2C07D1FF2F05D1FF2A03D1019AF7
:405EC0001360012007E0013300E00023AB42E1D3002000E0002003B0F0BDC0469608002008090020F0B58BB2124A1488A34218D900201EE0104AD25C824210D1E21A8A4217
:405F000014D35A18561E0C4DAF5D961EAE5D033AAA5CFF2A03D1FF2E01D1FF2F08D0013300E00023A342E5D3002002E0002000E00120F0BD960800200809002010B5484B40
:405F40001B7A0D2B78D89B00464AD3589F46FFF783FF96208001FFF743FFFFF767FF00207CE00220FFF750FF00286AD0FFF75EFF002073E03C48FFF779FF00206EE00821F2
:405F80007120FFF7AFFF00285DD10A30FFF73CFF00285AD0FFF74AFF00205FE0E1204002FFF71EFFFFF742FF002057E00220FFF72BFF00284BD0FFF739FF00204EE02A48A4
:405FC000FFF754FF002049E008217120FFF78AFF002804D00C20FFF735FF00203EE00A20FFF712FF002834D0FFF720FF002035E01D48FFF73BFF002030E008217120FFF72A
:4060000071FF002803D0FFF711FF002026E00A20FFF7FAFE00281ED0012040421EE01348FFF724FF002019E00520FFF7EDFE002813D00120404211E00133094A137200209C
:406040000CE000200AE0022008E0002006E0002004E0002002E0002000E0002010BDC046E401002020E1000058E1000060E1000010B50400FBF70AFE064B1B68C01AA0424E
:4060800005DBFBF703FE034B1860012000E0002010BDC046D009002010B5064B987A002806D000229A72FBF7F1FD034B1860012010BDC046E4010020D009002010B5024B5C
:4060C0001870FFF7E1FC10BDE40100200122014B9A727047E401002000B583B0244B1B7A012B08D0002B02D0022B2CD031E02148FFF7BCFE2FE00023019301AA08217120D1
:40610000FFF7BEFE002816D0FFF790FE019B0133194AD35C164A1078834202D0D37A0133D372134BDB7A012B15D9FFF7ADFC00220F4BDA720FE00A20FFF766FE00280AD0CB
:406140000220404212E00520FFF75EFE002802D008E0FFF76BFE094B1B68002B05D09847002003E00120404200E0002003B000BDE401002058E1000008090020C0000020B6
:4061800010B5124B5B7A002B02D0012B03D005E0FFF7D4FE03E0FFF79FFF00E00020002808DD0A4A537A1B18013B537200231372074A1360002808DA044B5A7A1018013074
:4061C000587200221A72024B1A6010BDE4010020D409002070B50500154B00229B5E834225D0134B188082B2012300210020FBF7EBFF1048017843781B020B431A008478BA
:40620000240423001343C47824061C43280004F073FC211C04F0B4F9074903F0E7FF074B1876020A5A76020C9A76000ED87670BDC40000209C0A002000409C45600A0020AE
:4062400070B50500154B02229B5E834225D0134B588082B2012301210020FBF7B5FF1048017943791B020B431A008479240423001343C47924061C43280004F03DFC211C3E
:4062800004F07EF9074903F0B1FF074B1877020A5A77020C9A77000ED87770BDC40000209C0A002000409C45600A002070B50500174B04229B5E834229D0154B988082B2AF
:4062C000012300210120FBF77FFF1248017A437A1B020B431A00847A240423001343C47A24061C43280004F007FC211C04F048F9094903F07BFF094B20229854010A01323B
:406300009954010C01329954000E0132985470BDC40000209C0A002000409C45600A002070B50500174B06229B5E834229D0154BD88082B2012301210120FBF745FF124846
:40634000017B437B1B020B431A00847B240423001343C47B24061C43280004F0CDFB211C04F00EF9094903F041FF094B24229854010A01329954010C01329954000E013236
:40638000985470BDC40000209C0A002000409C45600A002070B50500174B08229B5E834229D0154B188182B2012300210220FBF70BFF1248017C437C1B020B431A00847C57
:4063C000240423001343C47C24061C43280004F093FB211C04F0D4F8094903F007FF094B28229854010A01329954010C01329954000E0132985470BDC40000209C0A00205B
:4064000000409C45600A002070B50500174B0A229B5E834229D0154B588182B2012301210220FBF7D1FE1248017D437D1B020B431A00847D240423001343C47D24061C4323
:40644000280004F059FB211C04F09AF8094903F0CDFE094B2C229854010A01329954010C01329954000E0132985470BDC40000209C0A002000409C45600A002010B520223D
:4064800037490020FBF758FF00282FD1344B00211970597020202031997041214124DC7000241C715C719871D97100241C725C729872D97200241C735C739873D973002489
:4064C0001C745C749874D97400221A755A759875D97500221A775A779A774032DA7700221A765A76C4329A76823ADA7620221C491C48FCF799F830221B4996204000FBF7EF
:406500001BFF002815D017E01749D30000205854CB1800215970783999708B31D9702B3919711B31597100219971D9710132D2B200E00022052AE7D90020FFF74BFE002012
:40654000FFF77EFE0020FFF7B1FE0020FFF7E8FE0020FFF71FFF0020FFF756FF10BDC0469C0A0020400A0020E009002010B520220A490B48FCF762F800280DD0074C2022A9
:4065800021000020FBF7B6FE202221000448FCF74BF800F005FD012010BDC0469C0A0020400A002010B5302210491148FCF746F8002819D00D4C3022210096204000FBF73A
:4065C00099FE302221000A48FCF72EF8094B012252421A805A809A80DA801A815A8100F0D9FC00F0DDFC012010BDC046E0090020100A0020C400002010B5FFF73FFF1022E9
:4066000023496420FBF798FE002818D1204B00211970597020202031997041214124DC7000241C715C719871D97100241C725C729872D97200221A735A739873D97310229B
:4066400013491448FBF7F0FF134B01221A7000225A700021197159719971D9710021197259729972D97200221A735A739A73DA730BE00949131D9B0000205854CB18002146
:4066800059709970D9700132D2B2052AF1D910BDBC0A0020CC0A0020040B002010B5141C03F06EFF211C03F0A1FD10BDF0B583B0041C01921E1C089F181C03F061FF2549E6
:4066C00003F094FD051C0199301C03F059FF214903F08CFD0190211C281C03F05BFD00280CD03D702B0A7B702B0CBB702D0EFD7000233B727B72BB72FB7212E0211C019887
:4067000003F034FD002808D000233B727B720133BB720023FB72019C03E001233B7200237B720D49201C03F02BFF311C03F05EFD04F0C0F93871030A7B71030CBB71000E44
:40674000F8713C70230A7B70230CBB70240EFC7003B0F0BD0000C84200409C45F0B54F464646C0B495B0E548047842781202224383781B0413431A00C3781B061343057E4F
:40678000417E09022943827E12040A431100C27E12060A43067F447F24023443817F090421430C00C17F09062143D54C277C657C2D023D43A07C000428430500E07C00062F
:4067C000284311AD0095FFF771FF217C637C1B020B431A00A07C000403001343E07C00061843002103F0BCFC002801D000231293C248047942791202224383791B04134385
:406800001A00C3791B061343057E417E09022943827E12040A431100C27E12060A43067F447F24023443817F090421430C00C17F09062143B24C277D657D2D023D43A07D54
:40684000000428430500E07D000628430EAD0095FFF72CFF217D637D1B020B431A00A07D000403001343E07D00061843002103F077FC002801D000230F93A048047A427AC3
:4068800012022243837A1B0413431A00C37A1B061343057E417E09022943827E12040A431100C27E12060A43067F447F24023443817F090421430C00C17F09062143904C5C
:4068C000277E657E2D023D43A07E000428430500E07E000628430BAD0095FFF7E7FE217E637E1B020B431A00A07E000403001343E07E00061843002103F032FC002801D05E
:4069000000230C937D48047B427B12022243837B1B0413431A00C37B1B061343057E417E09022943827E12040A431100C27E12060A43067F447F24023443817F09042143B1
:406940000C00C17F090621436D4C277F657F2D023D43A07F000428430500E07F0006284308AD0095FFF7A2FE217F637F1B020B431A00A07F000403001343E07F00061843E0
:40698000002103F0EDFB002801D0002309935B48047C427C12022243837C1B0413431A00C37C1B061343057E417E09022943827E12040A431100C27E12060A43067F447F6B
:4069C00024023443817F090421430C00C17F090621434B4C20208146275C01308046255C2D023D432227E05D0004284305002326A05D0006284305AD0095FFF757FE4B46AE
:406A0000E15C4346E35C1B020B431A00E05D000403001343A05D00061843002103F0A0FB002801D0002306933448047D427D12022243837D1B0413431A00C37D1B061343F5
:406A4000057E417E09022943827E12040A431100C27E12060A43067F447F24023443817F090421430C00C17F09062143244C24208146275C01308046255C2D023D432627BD
:406A8000E05D0004284305002726A05D0006284302AD0095FFF70AFE4B46E15C4346E35C1B020B431A00E05D000403001343A05D00061843002103F053FB002801D0002397
:406AC0000393129B18B2FFF785FB0F9B18B2FFF7B7FB0C9B18B2FFF7E9FB099B18B2FFF71FFC069B18B2FFF755FC039B18B2FFF78BFC15B00CBC90469946F0BD9C0A0020E1
:406B0000040B0020F0B595B07B4C2078627812020243A3781B0413431A00E3781B061343257E617E09022943A27E12040A431100E27E12060A43267F607F00023043A17FC3
:406B4000090401430800E17F090601436B4D28786E7836020643A878000430430600E8780006304311AE0096FFF7A0FD644E317973791B020B431A00B07900040300134399
:406B8000F079000618432F786B781B023B431A00A97809040B001343E978090619432A796B791B0213431F00AA79120413003B43EA7912061A43FFF771FD277A627A1202C1
:406BC0003A43A37A1B0413431A00E37A1B061343227E617E09021143A27E12040A431100E27E12060A43217F677F3F020F43A17F09040F43E17F090639430EAF0097FFF794
:406C000055FD317973791B020B431A00B079000403001343F079000618432E786B781B0233431A00A97809040B001343E978090619432A796B791B0213431E00AA791204B5
:406C400013003343EA7912061A43FFF727FD257B627B12022A43A37B1B0413431A00E37B1B061343267E617E09023143A27E12040A431100E27E12060A43217F657F2D020B
:406C80000D43A17F090429430D00E17F090629430BAC0094FFF70AFD3B89002B08D00BAA1289002A04D000230C9300230B932DE0002B08D00BAA1289002A04D100230C9302
:406CC00000230B9322E0002B08D10BAB1B89002B04D000230F9300230E9317E00EAB5B89012B0FD10BAB5B89012B0BD100230F9300230E930AE0C0469C0A0020BC0A002084
:406D0000040B002000230C9300230B939E4C217963791B020B431A00A079000403001343E07900061843002103F01AFA002805D000220F9200230E930C920B93924D297A22
:406D40006B7A1B020B431A00A87A000403001343E87A000618438D4B1E785A78120232431400997809040A002243D978090611431F7A5C7A24023C439A7A12042243140092
:406D8000DA7A12062243FFF789FC814C267C627C12023243A37C1B0413431A00E37C1B061343277E617E09023943A27E12040A431100E27E12060A43217F667F36020E43BB
:406DC000A17F090431430E00E17F0906314308AC0094FFF76BFC297A6B7A1B020B431A00A87A000403001343E87A00061843002103F0B6F9002803D00023099300230893D2
:406E0000614D297B6B7B1B020B431A00A87B000403001343E87B000618435C4B1E785A78120232431400997809040A002243D978090611431F7B5C7B24023C439A7B120423
:406E400022431400DA7B12062243FFF727FC504C267D627D12023243A37D1B0413431A00E37D1B061343277E617E09023943A27E12040A431100E27E12060A43217F667F98
:406E800036020E43A17F090431430E00E17F0906314305AC0094FFF709FC297B6B7B1B020B431A00A87B000403001343E87B00061843002103F054F9002803D0002306930C
:406EC00000230593314C217863781B020B431A00A078000403001343E078000618430E9903F062FC0B9903F05FFC089903F05CFC059903F059FC051C002103F037F90028EA
:406F000000D000252248047942791202224383791B0413431A00C3791B061343067E417E09023143827E12040A431100C27E12060A43077F447F24023C43817F09042143C9
:406F40000C00C17F0906214302AC0094281CFFF7ADFB129B18B2FFF73DF90423E05EFFF76FF90F9B18B2FFF7A1F90C9B18B2FFF7D7F9099B18B2FFF70DFA069B18B2FFF7C1
:406F800043FA15B0F0BDC046040B0020BC0A00209C0A00200122014B1A707047F001002010B528221B491C48FBF748FB002803D11A4B1B78002B2BD00022184B1A70164CE9
:406FC000283221001348FBF72FFBA278E3781B0213430BD0104B1A785B781B02134302D1FFF7BCFB14E0FFF78DFD11E00020FFF7F1F80020FFF724F90020FFF757F900200C
:40700000FFF78EF90020FFF7C5F90020FFF7FCF910BDC046DC0A0020040B0020F001002010B510220A490B48FBF708FB00280DD0084C102221006420FBF75CF9102221007F
:407040000348FBF7F1FAFFF7ABFF012010BDC046CC0A0020BC0A00200322074B1A6080221206064B1A603F23054A1360054A13602022054B1A6070473000304000003A403F
:4070800000033A4040033A40000E3F4010B505F08DFB03680C2B00D1FEE7FEE710B50300084A1068C318084A9A1A802A02DC054A136005E005F07AFB0C2303600120404249
:4070C00010BDC046D0000020780E002070B50F4E0F4D13E029686B68AC68002202E001C901C30432A242FAD1E868002202E0002102C304328242FAD11035013E002EE9D1FC
:4071000005F05AFBFAF798FDFEE7C046010000003CE3000010B500230AE0032B03D89A000B49505800E00B4899000B4A885001332B2BF2D9FAF7E2FC084B1B68002B02D112
:407140000022064B1A6080229205054B1A6010BD001A00008D70000000000020B000002008ED00E010B5072000F0F8FE10BDC04610B500F0EBF810BD10B500F079F810BD79
:4071800010B5054A1368802109060B431360FFF7E9FFFFF7EDFF10BD0000244010B5064B1B78002B04D1FFF7E7FF0122024B1A70FFF7E6FF10BDC046F4010020014B586098
:4071C0007047C046F4010020014B18687047C04640032440024B1B681F2018407047C04608032440154B1A68154B1B689A4208D1144B1B681F221340082B02D0124B186030
:407200001BE00E4B1A68013280235B009A4200D100220B4B1B689A42FBD002230B490B60C0B20B49885405490A600A4A1268134203D1084A11680B4313607047300C002024
